{
  "_format": "hh-sol-artifact-1",
  "contractName": "WarrantyTracker",
  "sourceName": "contracts/PrductWarrantyTracker.sol",
  "abi": [
    {
      "anonymous": false,
      "inputs": [
        {
          "indexed": true,
          "internalType": "bytes32",
          "name": "productId",
          "type": "bytes32"
        },
        {
          "indexed": false,
          "internalType": "string",
          "name": "name",
          "type": "string"
        },
        {
          "indexed": false,
          "internalType": "uint256",
          "name": "warrantyExpiry",
          "type": "uint256"
        },
        {
          "indexed": true,
          "internalType": "address",
          "name": "owner",
          "type": "address"
        }
      ],
      "name": "ProductRegistered",
      "type": "event"
    },
    {
      "anonymous": false,
      "inputs": [
        {
          "indexed": true,
          "internalType": "bytes32",
          "name": "productId",
          "type": "bytes32"
        }
      ],
      "name": "WarrantyClaimed",
      "type": "event"
    },
    {
      "inputs": [
        {
          "internalType": "bytes32",
          "name": "productId",
          "type": "bytes32"
        }
      ],
      "name": "claimWarranty",
      "outputs": [],
      "stateMutability": "nonpayable",
      "type": "function"
    },
    {
      "inputs": [
        {
          "internalType": "bytes32",
          "name": "productId",
          "type": "bytes32"
        }
      ],
      "name": "getProduct",
      "outputs": [
        {
          "internalType": "string",
          "name": "",
          "type": "string"
        },
        {
          "internalType": "uint256",
          "name": "",
          "type": "uint256"
        },
        {
          "internalType": "address",
          "name": "",
          "type": "address"
        }
      ],
      "stateMutability": "view",
      "type": "function"
    },
    {
      "inputs": [
        {
          "internalType": "bytes32",
          "name": "",
          "type": "bytes32"
        }
      ],
      "name": "products",
      "outputs": [
        {
          "internalType": "string",
          "name": "name",
          "type": "string"
        },
        {
          "internalType": "uint256",
          "name": "warrantyExpiry",
          "type": "uint256"
        },
        {
          "internalType": "address",
          "name": "owner",
          "type": "address"
        },
        {
          "internalType": "bool",
          "name": "exists",
          "type": "bool"
        }
      ],
      "stateMutability": "view",
      "type": "function"
    },
    {
      "inputs": [
        {
          "internalType": "bytes32",
          "name": "productId",
          "type": "bytes32"
        },
        {
          "internalType": "string",
          "name": "name",
          "type": "string"
        },
        {
          "internalType": "uint256",
          "name": "warrantyPeriod",
          "type": "uint256"
        }
      ],
      "name": "registerProduct",
      "outputs": [],
      "stateMutability": "nonpayable",
      "type": "function"
    }
  ],
  "bytecode": "0x6080604052348015600f57600080fd5b50610ec38061001f6000396000f3fe608060405234801561001057600080fd5b506004361061004c5760003560e01c806339d8dec8146100515780633a20e9df1461006d578063790543911461009f57806390e6e7a2146100d2575b600080fd5b61006b6004803603810190610066919061064c565b6100ee565b005b6100876004803603810190610082919061064c565b61027a565b60405161009693929190610763565b60405180910390f35b6100b960048036038101906100b4919061064c565b6103db565b6040516100c994939291906107bc565b60405180910390f35b6100ec60048036038101906100e79190610969565b6104c0565b005b60008082815260200190815260200160002060020160149054906101000a900460ff16610150576040517f08c379a000000000000000000000000000000000000000000000000000000000815260040161014790610a24565b60405180910390fd5b3373ffffffffffffffffffffffffffffffffffffffff1660008083815260200190815260200160002060020160009054906101000a900473ffffffffffffffffffffffffffffffffffffffff1673ffffffffffffffffffffffffffffffffffffffff16146101f3576040517f08c379a00000000000000000000000000000000000000000000000000000000081526004016101ea90610a90565b60405180910390fd5b60008082815260200190815260200160002060010154421061024a576040517f08c379a000000000000000000000000000000000000000000000000000000000815260040161024190610afc565b60405180910390fd5b807f99e77d4092287badf5165a76eb7add37ec282650747091906c6a02e0cd4f5b3d60405160405180910390a250565b606060008060008085815260200190815260200160002060020160149054906101000a900460ff166102e1576040517f08c379a00000000000000000000000000000000000000000000000000000000081526004016102d890610a24565b60405180910390fd5b6000808581526020019081526020016000206000016000808681526020019081526020016000206001015460008087815260200190815260200160002060020160009054906101000a900473ffffffffffffffffffffffffffffffffffffffff1682805461034e90610b4b565b80601f016020809104026020016040519081016040528092919081815260200182805461037a90610b4b565b80156103c75780601f1061039c576101008083540402835291602001916103c7565b820191906000526020600020905b8154815290600101906020018083116103aa57829003601f168201915b505050505092509250925092509193909250565b60006020528060005260406000206000915090508060000180546103fe90610b4b565b80601f016020809104026020016040519081016040528092919081815260200182805461042a90610b4b565b80156104775780601f1061044c57610100808354040283529160200191610477565b820191906000526020600020905b81548152906001019060200180831161045a57829003601f168201915b5050505050908060010154908060020160009054906101000a900473ffffffffffffffffffffffffffffffffffffffff16908060020160149054906101000a900460ff16905084565b604051806080016040528083815260200182426104dd9190610bab565b81526020013373ffffffffffffffffffffffffffffffffffffffff16815260200160011515815250600080858152602001908152602001600020600082015181600001908161052c9190610d8b565b506020820151816001015560408201518160020160006101000a81548173ffffffffffffffffffffffffffffffffffffffff021916908373ffffffffffffffffffffffffffffffffffffffff16021790555060608201518160020160146101000a81548160ff0219169083151502179055509050503373ffffffffffffffffffffffffffffffffffffffff16837fb1c8ea3fb3e5da2f622c4f1cd7f20df8fc98bdfd0736c505e636b601d1f23e3a8484426105e79190610bab565b6040516105f5929190610e5d565b60405180910390a3505050565b6000604051905090565b600080fd5b600080fd5b6000819050919050565b61062981610616565b811461063457600080fd5b50565b60008135905061064681610620565b92915050565b6000602082840312156106625761066161060c565b5b600061067084828501610637565b91505092915050565b600081519050919050565b600082825260208201905092915050565b60005b838110156106b3578082015181840152602081019050610698565b60008484015250505050565b6000601f19601f8301169050919050565b60006106db82610679565b6106e58185610684565b93506106f5818560208601610695565b6106fe816106bf565b840191505092915050565b6000819050919050565b61071c81610709565b82525050565b600073ffffffffffffffffffffffffffffffffffffffff82169050919050565b600061074d82610722565b9050919050565b61075d81610742565b82525050565b6000606082019050818103600083015261077d81866106d0565b905061078c6020830185610713565b6107996040830184610754565b949350505050565b60008115159050919050565b6107b6816107a1565b82525050565b600060808201905081810360008301526107d681876106d0565b90506107e56020830186610713565b6107f26040830185610754565b6107ff60608301846107ad565b95945050505050565b600080fd5b600080fd5b7f4e487b7100000000000000000000000000000000000000000000000000000000600052604160045260246000fd5b61084a826106bf565b810181811067ffffffffffffffff8211171561086957610868610812565b5b80604052505050565b600061087c610602565b90506108888282610841565b919050565b600067ffffffffffffffff8211156108a8576108a7610812565b5b6108b1826106bf565b9050602081019050919050565b82818337600083830152505050565b60006108e06108db8461088d565b610872565b9050828152602081018484840111156108fc576108fb61080d565b5b6109078482856108be565b509392505050565b600082601f83011261092457610923610808565b5b81356109348482602086016108cd565b91505092915050565b61094681610709565b811461095157600080fd5b50565b6000813590506109638161093d565b92915050565b6000806000606084860312156109825761098161060c565b5b600061099086828701610637565b935050602084013567ffffffffffffffff8111156109b1576109b0610611565b5b6109bd8682870161090f565b92505060406109ce86828701610954565b9150509250925092565b7f50726f6475637420646f6573206e6f7420657869737400000000000000000000600082015250565b6000610a0e601683610684565b9150610a19826109d8565b602082019050919050565b60006020820190508181036000830152610a3d81610a01565b9050919050565b7f4e6f7420746865206f776e657200000000000000000000000000000000000000600082015250565b6000610a7a600d83610684565b9150610a8582610a44565b602082019050919050565b60006020820190508181036000830152610aa981610a6d565b9050919050565b7f57617272616e7479206578706972656400000000000000000000000000000000600082015250565b6000610ae6601083610684565b9150610af182610ab0565b602082019050919050565b60006020820190508181036000830152610b1581610ad9565b9050919050565b7f4e487b7100000000000000000000000000000000000000000000000000000000600052602260045260246000fd5b60006002820490506001821680610b6357607f821691505b602082108103610b7657610b75610b1c565b5b50919050565b7f4e487b7100000000000000000000000000000000000000000000000000000000600052601160045260246000fd5b6000610bb682610709565b9150610bc183610709565b9250828201905080821115610bd957610bd8610b7c565b5b92915050565b60008190508160005260206000209050919050565b60006020601f8301049050919050565b600082821b905092915050565b600060088302610c417fffffffffffffffffffffffffffffffffffffffffffffffffffffffffffffffff82610c04565b610c4b8683610c04565b95508019841693508086168417925050509392505050565b6000819050919050565b6000610c88610c83610c7e84610709565b610c63565b610709565b9050919050565b6000819050919050565b610ca283610c6d565b610cb6610cae82610c8f565b848454610c11565b825550505050565b600090565b610ccb610cbe565b610cd6818484610c99565b505050565b5b81811015610cfa57610cef600082610cc3565b600181019050610cdc565b5050565b601f821115610d3f57610d1081610bdf565b610d1984610bf4565b81016020851015610d28578190505b610d3c610d3485610bf4565b830182610cdb565b50505b505050565b600082821c905092915050565b6000610d6260001984600802610d44565b1980831691505092915050565b6000610d7b8383610d51565b9150826002028217905092915050565b610d9482610679565b67ffffffffffffffff811115610dad57610dac610812565b5b610db78254610b4b565b610dc2828285610cfe565b600060209050601f831160018114610df55760008415610de3578287015190505b610ded8582610d6f565b865550610e55565b601f198416610e0386610bdf565b60005b82811015610e2b57848901518255600182019150602085019450602081019050610e06565b86831015610e485784890151610e44601f891682610d51565b8355505b6001600288020188555050505b505050505050565b60006040820190508181036000830152610e7781856106d0565b9050610e866020830184610713565b939250505056fea2646970667358221220db583ce0ae47b424b6beccc18f3cb926b2ce8be9cf2835d1ae65de08d15c443264736f6c634300081a0033",
  "linkReferences": {},
  "deployedLinkReferences": {}
}